:100000000C9434000C9449000C9449000C94490061
:100010000C9449000C9449000C9449000C9449003C
:100020000C9449000C9449000C9449000C9449002C
:100030000C9449000C9449000C9449000C9449001C
:100040000C9449000C9449000C9449000C9449000C
:100050000C9449000C9449000C9449000C944900FC
:100060000C9449000C94490011241FBECFEFD8E036
:10007000DEBFCDBF11E0A0E0B1E0EEE0F4E002C0F1
:1000800005900D92A039B107D9F70E949B000C94FE
:1000900005020C940000CF93DF93EC0189910E943C
:1000A000BD018823D9F3DF91CF910895CF93DF93DA
:1000B000EC010E94E5018F3F11F08993FACFDF91A7
:1000C000CF9108950F931F93CF93DF93EC018B0192
:1000D0000E94A301882319F0813041F513C081E00B
:1000E00060E040E051E00E945B0181E060E048E1B7
:1000F00051E00E945B01CE010E94560081E062E067
:10010000AE0112C081E060E040E051E00E945B017E
:1001100081E060E04BE151E00E945B01C8010E9478
:100120004B0081E062E0A8010E945B01DF91CF916A
:100130001F910F910895EF92FF920F931F93DF93FA
:10014000CF93CDB7DEB7C85CD0400FB6F894DEBF12
:100150000FBECDBFDE011196EBE2F1E086E001902B
:100160000D928150E1F7FE0137968EE5DF011D9279
:100170008A95E9F78E010B591F4F84E6F801119219
:100180008A95E9F780E3D8018C930E94750180E29B
:100190000E949D0180E060E04EE151E00E945B0121
:1001A00078018E010F5F1F4FC701B8010E946200E6
:1001B000FBCF982F672B79F0907F8BB183738BB92E
:1001C000892F94FD5B9A85FD5A9A86FD5E9A97FF6A
:1001D0000FC05F9A08958BB183738BB99F70892F7D
:1001E00090FD5B9A81FD5A9A82FD5E9A83FD5F9A2B
:1001F00008950F931F93082F61E070E00E94D900CB
:100200002C9A2B9A15E0812F8A95F1F72B988AE684
:100210008A95F1F7802F60E070E00E94D9002B9A58
:100220001A95F1F72B9880E49FE10197F1F71F9160
:100230000F910895CF93DF93EC0102C00E94F90063
:1002400089918823D9F7DF91CF9108950F931F9358
:10025000082F61E070E00E94D9002C982B9A15E0DD
:10026000812F8A95F1F72B988AE68A95F1F7802FEE
:1002700060E070E00E94D9002B9A1A95F1F72B9854
:1002800080E49FE10197F1F71F910F91089581E0BC
:100290000E94260180E49FE10197F1F780E80E9427
:1002A000260188EC90E020E931E0F9013197F1F77F
:1002B0000197D9F70895CF93DF93EA01882331F4AA
:1002C00060316CF46F70862F806807C0813039F41C
:1002D00060312CF46F70862F806C0E942601CE0155
:1002E0000E941A01DF91CF9108958AB18C6C8AB96E
:1002F00084B1886184B988EC90E020E931E0F901AB
:100300003197F1F70197D9F782E00E94260188E240
:100310000E9426018CE00E94260186E00E942601B0
:1003200081E00E94260188EC90E020E931E0F901AB
:100330003197F1F70197D9F708958093BA0084ECCB
:100340008093BC0008958091BC0087FFFCCF809112
:10035000B900887F803659F0883649F0883A49F0EC
:10036000803B39F0803739F0883769F704C080E086
:10037000089581E0089582E008958093BB0084ECA5
:100380008093BC008091BC0087FFFCCF8091B900B6
:10039000887F803A39F48091BC0080688093BC00EB
:1003A0008FEF0895883B11F480E00895803C39F484
:1003B0008091BC0080688093BC008EEF0895883CDB
:1003C00011F08CEF08958DEF089584EC8093BC00BC
:1003D0008091BC0087FFFCCF8091B900887F803876
:1003E00031F0803921F0883811F0883919F4809182
:1003F000BB000895803A11F08EEF08958091BC0003
:0E04000080688093BC008FEF0895F894FFCFC2
:10040E0020202020202020202020202020202020DE
:10041E002020202020202000523A00533A00536C16
:10042E006176652044657669636500574F524C448A
:10043E0000000000000000000000000000000000AE
:10044E00000000000000000000000000000000009E
:10045E00000000000000000000000000000000008E
:10046E00000000000000000000000000000000007E
:10047E00000000000000000000000000000000006E
:10048E00000000000000000000000000000000005E
:00000001FF
