:100000000C9434000C9451000C9451000C94510049
:100010000C94F1000C9451000C9451000C9451007C
:100020000C9451000C9451000C9451000C9451000C
:100030000C9451000C9451000C9451000C945100FC
:100040000C9451000C9451000C9451000C945100EC
:100050000C9451000C9451000C9451000C945100DC
:100060000C9451000C94510011241FBECFEFD8E026
:10007000DEBFCDBF12E0A0E0B1E0E0E3F7E102C0F7
:1000800005900D92A63AB107D9F712E0A6EAB2E0C0
:1000900001C01D92AE3AB107E1F70E9453000C94E3
:1000A000960B0C940000CF92DF92EF92FF920F9389
:1000B0001F93CF93DF930E944B0100D000D000D05C
:1000C000EDB7FEB7319680E091E0ADB7BEB71296BE
:1000D0009C938E93119780E291E09383828389E2CF
:1000E00091E0958384830E947308569A529A3C98B3
:1000F0008091690084608093690080916C008061C8
:1001000080936C008091680082608093680083E82F
:1001100084BD17BC85E085BD7894EDB7FEB73696F3
:100120000FB6F894FEBF0FBEEDBF31E5C32E31E030
:10013000D32E25E3E22E21E0F22EC0E9D1E080911A
:10014000A6029091A7020197A1F50E9463086AE0B8
:1001500070E00E94B4079C018C0193E0000F111F16
:100160009A95E1F7220F331F020F131FB80188275A
:1001700077FD8095982F0E940D0520E030E048EC37
:1001800052E40E94310420E030E04FE753E40E9443
:1001900037030E94610167BD00D000D0ADB7BEB784
:1001A0001296FC92EE92119714961C930E9313974D
:1001B00009C017BC00D000D0EDB7FEB7D282C18213
:1001C000148213820E9473080F900F900F900F906B
:1001D00080ED97E0FE013197F1F7019709F4AFCF79
:1001E000F9CF1F920F920FB60F9211242F933F93C6
:1001F0004F935F936F937F938F939F93AF93BF932F
:10020000EF93FF93349B05C08CE691E00E94880831
:100210001FC080E791E00E9488088091A60290911B
:10022000A702892B61F484E791E00E9488085A9A1A
:1002300081E090E09093A7028093A60209C088E72E
:1002400091E00E9488085A981092A7021092A60284
:10025000FF91EF91BF91AF919F918F917F916F919E
:100260005F914F913F912F910F900FBE0F901F9074
:100270001895982F8091C00085FFFCCF9093C60001
:1002800080E090E008958091C00087FFFCCF8091CE
:10029000C60090E0089588E18093C10087E690E071
:1002A0009093C5008093C4008DE791E09093AB02DA
:1002B0008093AA028BE891E09093A9028093A80210
:1002C0000895EF92FF920F931F937B018C0120E022
:1002D00030E040E05FE40E94DD0488238CF0C80138
:1002E000B70120E030E040E05FE40E94D9020E94C4
:1002F0006B059B01AC01205030404040504806C087
:10030000C801B7010E946B059B01AC01B901CA018C
:100310001F910F91FF90EF900895A0E0B0E0E3E906
:10032000F1E00C94DB07DC012B01FA019C91923087
:1003300008F439C1EB018881823008F433C194306C
:1003400069F4843009F02FC111969C91119789812D
:10035000981709F428C1A9E9B1E025C1843009F44E
:1003600021C18230A9F4923009F01DC19A01AD017A
:1003700088E0EA010990AE01E90109929E018150ED
:10038000C1F7E201898111969C918923818308C17B
:10039000923009F407C112962D903C901397EB010F
:1003A0008A819B811496AD90BD90CD90DC9017977B
:1003B000EC80FD800E811F819101281B390BB90152
:1003C00037FF04C066277727621B730B6032710505
:1003D0000CF061C0121613066CF537014801062EA9
:1003E00004C096948794779467940A94D2F721E096
:1003F00030E040E050E004C0220F331F441F551F7F
:100400006A95D2F721503040404050402E213F2184
:1004100040235123211531054105510521F021E0EB
:1004200030E040E050E079018A01E628F728082909
:1004300019293CC0232BD1F1260E371E3501460168
:10044000062E04C096948794779467940A94D2F702
:1004500021E030E040E050E004C0220F331F441F91
:10046000551F6A95D2F721503040404050402A2114
:100470003B214C215D21211531054105510521F01C
:1004800021E030E040E050E059016A01A628B72899
:10049000C828D9280BC0821593052CF01C01AA246A
:1004A000BB24650103C0EE24FF24870111969C91B3
:1004B000D20111968C91981709F445C0992339F00F
:1004C000A80197012A193B094C095D0906C0A6013C
:1004D00095012E193F09400B510B57FD08C01182A1
:1004E0003382228224833583468357831DC081E073
:1004F00081833382228288279927DC01821B930B18
:10050000A40BB50B84839583A683B7830DC0220FFC
:10051000331F441F551F24833583468357838281AD
:10052000938101979383828324813581468157810A
:10053000DA01C9010197A109B1098F5F9F4FAF4F40
:10054000BF4328F30BC0918333822282EA0CFB1C49
:100550000C1D1D1DE482F5820683178383E08083D2
:10056000248135814681578157FF1AC0C901AA27C6
:1005700097FDA095BA2F81709070A070B0705695BD
:10058000479537952795822B932BA42BB52B8483E6
:100590009583A683B7838281938101969383828317
:1005A000DF0101C0D201CD01CDB7DEB7E2E10C948D
:1005B000F707A0E2B0E0EFEDF2E00C94E707698303
:1005C0007A838B839C832D833E834F835887E9E016
:1005D000EE2EF12CEC0EFD1ECE010196B7010E940D
:1005E000E3068E010F5E1F4FCE010596B8010E94F3
:1005F000E3068A8991E089278A8BC701B801AE0199
:10060000475E5F4F0E948D010E940E06A096E6E0B5
:100610000C940308A0E2B0E0E0E1F3E00C94E707FB
:1006200069837A838B839C832D833E834F83588792
:10063000F9E0EF2EF12CEC0EFD1ECE010196B70174
:100640000E94E3068E010F5E1F4FCE010596B80192
:100650000E94E306C701B801AE01475E5F4F0E94EA
:100660008D010E940E06A096E6E00C940308A0E21D
:10067000B0E0EDE3F3E00C94DB0769837A838B83CE
:100680009C832D833E834F835887CE010196BE0104
:10069000675F7F4F0E94E306CE010596BE016F5E45
:1006A0007F4F0E94E3069985923088F089898230D5
:1006B000C8F0943019F4823051F404C0843029F425
:1006C000923081F489E991E0C6C0923049F420E08B
:1006D0009A858A89981321E02A87CE010996BBC0A2
:1006E000823049F420E09A858A89981321E02A8B88
:1006F000CE014196B0C02D843E844F8458886D88C9
:100700007E888F88988CEE24FF248701AA24BB243E
:10071000650140E050E060E070E0E0E0F0E0C10141
:1007200081709070892BE9F0E60CF71C081D191DEB
:100730009A01AB012A0D3B1D4C1D5D1D80E090E030
:10074000A0E0B0E0E614F7040805190520F481E004
:1007500090E0A0E0B0E0BA01A901480F591F6A1F5C
:100760007B1FAA0CBB1CCC1CDD1C97FE08C081E0C3
:1007700090E0A0E0B0E0A82AB92ACA2ADB2A319684
:10078000E032F10549F0660C771C881C991C5694E0
:10079000479437942794C3CFFA85EA892B893C89FB
:1007A0008B859C85280F391F2E5F3F4F17C0CA01CC
:1007B00081709070892B61F016950795F794E794F6
:1007C00080E090E0A0E0B0E8E82AF92A0A2B1B2B91
:1007D00076956795579547952F5F3F4F77FDE7CF04
:1007E0000CC0440F551F661F771F17FD4160EE0CAC
:1007F000FF1C001F111F21503040403090E059076E
:1008000090E0690790E4790760F32B8F3C8FDB0160
:10081000CA018F779070A070B07080349105A105E7
:10082000B10561F447FD0AC0E114F10401051105A9
:1008300029F0405C5F4F6F4F7F4F40781A8EFE1754
:1008400011F081E08A8F4D8F5E8F6F8F78A383E0E8
:10085000898FCE0149960E940E06A096E2E10C9483
:10086000F707A8E1B0E0E7E3F4E00C94E30769835D
:100870007A838B839C832D833E834F835887B9E093
:10088000EB2EF12CEC0EFD1ECE010196B7010E945D
:10089000E3068E010F5E1F4FCE010596B8010E9440
:1008A000E3062985223008F47EC03989323010F4FD
:1008B000B8017CC08A859A8989278A87243011F0FB
:1008C000223031F4231709F06EC069E971E06EC07F
:1008D000343039F41D861E861F86188A1C861B86B6
:1008E00004C0323021F484E08987B7015FC02B85D2
:1008F0003C858B899C89281B390B3C872B87ED8491
:10090000FE840F851889AD88BE88CF88D88CEA14FC
:10091000FB040C051D0540F4EE0CFF1C001F111F0D
:10092000215030403C872B8720E030E040E050E011
:1009300080E090E0A0E0B0E460E070E0EA14FB0446
:100940000C051D0540F0282B392B4A2B5B2BEA1890
:10095000FB080C091D09B695A79597958795EE0C90
:10096000FF1C001F111F6F5F7F4F6F31710531F743
:10097000DA01C9018F779070A070B0708034910552
:10098000A105B10561F427FD0AC0E114F1040105D8
:10099000110529F0205C3F4F4F4F5F4F20782D8786
:1009A0003E874F87588BBE01675F7F4FCB010E9408
:1009B0000E066896EAE00C94FF07A8E1B0E0E3EECB
:1009C000F4E00C94E70769837A838B839C832D83FF
:1009D0003E834F83588789E0E82EF12CEC0EFD1EF4
:1009E000CE010196B7010E94E3068E010F5E1F4FF4
:1009F000CE010596B8010E94E3068985823040F059
:100A00008989823028F0C701B8010E945B0701C0C4
:100A10008FEF6896E6E00C940308A8E0B0E0E3E10D
:100A2000F5E00C94E4079B01AC0183E08983DA01D3
:100A3000C9018827B7FD83959927AA27BB27B82E18
:100A4000211531054105510519F482E089833AC029
:100A50008823A9F0203080E0380780E0480780E84C
:100A6000580729F460E070E080E09FEC30C0EE248D
:100A7000FF248701E21AF30A040B150B02C0790167
:100A80008A018EE1C82ED12CDC82CB82ED82FE82DF
:100A90000F831887C801B7010E94BF050197181678
:100AA000190684F4082E04C0EE0CFF1C001F111F51
:100AB0000A94D2F7ED82FE820F831887C81AD90AEA
:100AC000DC82CB82BA82CE0101960E940E06289665
:100AD000E9E00C940008ACE0B0E0E1E7F5E00C944C
:100AE000EB0769837A838B839C83CE010196BE01D9
:100AF0006B5F7F4F0E94E3068D81823061F182300F
:100B000050F1843021F48E81882351F12EC02F8141
:100B1000388537FD20C06E812F3131051CF06623EA
:100B2000F9F023C08EE190E0821B930B29853A8572
:100B30004B855C8504C056954795379527958A95D2
:100B4000D2F76623B1F050954095309521953F4FEF
:100B50004F4F5F4F0EC020E030E040E050E009C052
:100B60002FEF3FEF4FEF5FE704C020E030E040E0C1
:100B700050E8B901CA012C96E2E00C940708EF9204
:100B8000FF920F931F937B018C0180E0E81680E0B9
:100B9000F80681E0080780E0180788F48FEFE81670
:100BA000F1040105110531F028F088E090E0A0E0A3
:100BB000B0E017C080E090E0A0E0B0E012C080E0BC
:100BC000E81680E0F80680E0080781E0180728F0C2
:100BD00088E190E0A0E0B0E004C080E190E0A0E017
:100BE000B0E020E230E040E050E0281B390B4A0B37
:100BF0005B0B04C016950795F794E7948A95D2F796
:100C0000F701EF55FE4F8081281B31094109510939
:100C1000C9011F910F91FF90EF900895DF92EF921D
:100C2000FF920F931F93FC01E480F58006811781EA
:100C3000D1808081823048F480E090E0A0E1B0E093
:100C4000E82AF92A0A2B1B2BA5C0843009F49FC07F
:100C5000823021F4EE24FF24870105C0E114F10461
:100C60000105110519F4E0E0F0E096C0628173819E
:100C70009FEF623879070CF05BC022E83FEF261B3C
:100C8000370B2A3131052CF020E030E040E050E015
:100C90002AC0B801A701022E04C076956795579522
:100CA00047950A94D2F781E090E0A0E0B0E004C05C
:100CB000880F991FAA1FBB1F2A95D2F70197A10978
:100CC000B1098E219F21A023B1230097A105B10571
:100CD00021F081E090E0A0E0B0E09A01AB01282B88
:100CE000392B4A2B5B2BDA01C9018F779070A070EA
:100CF000B07080349105A105B10539F427FF09C012
:100D0000205C3F4F4F4F5F4F04C0215C3F4F4F4F20
:100D10005F4FE0E0F0E02030A0E03A07A0E04A07B3
:100D2000A0E45A0710F0E1E0F0E079018A0127C061
:100D30006038710564F5FB01E158FF4FD801C70128
:100D40008F779070A070B07080349105A105B105C7
:100D500039F4E7FE0DC080E490E0A0E0B0E004C00C
:100D60008FE390E0A0E0B0E0E80EF91E0A1F1B1F21
:100D700017FF05C016950795F794E794319687E01D
:100D800016950795F794E7948A95D1F705C0EE2458
:100D9000FF248701EFEFF0E06E2F679566276795D8
:100DA000902F9F77D794DD24D7948E2F8695492F47
:100DB000462B582F5D29B701CA011F910F91FF9053
:100DC000EF90DF900895FC01DB0140815181228189
:100DD000622F6F7770E0221F2227221F9381892FB5
:100DE000880F822B282F30E0991F9927991F119681
:100DF0009C93119721153105A9F541155105610500
:100E0000710511F482E037C082E89FEF13969C933E
:100E10008E9312979A01AB0167E0220F331F441F94
:100E2000551F6A95D1F783E08C930DC0220F331FB5
:100E3000441F551F12968D919C91139701971396FD
:100E40009C938E931297203080E0380780E048070B
:100E500080E4580758F314962D933D934D935C937B
:100E6000179708952F3F310579F441155105610514
:100E7000710519F484E08C93089564FF03C081E048
:100E80008C9312C01C9210C02F57304013963C9385
:100E90002E93129783E08C9387E0440F551F661FB3
:100EA000771F8A95D1F7706414964D935D936D9377
:100EB0007C93179708951F93DC01FB019C9192305E
:100EC00008F447C08081823008F443C0943051F464
:100ED00011961C91843099F58181682F70E0611B17
:100EE00071093FC0843021F0923031F48230B9F181
:100EF0008181882389F12DC011961C911197823030
:100F0000F1F081811817D9F412962D913C91139725
:100F1000828193818217930794F028173907BCF0D8
:100F200014968D919D910D90BC91A02D24813581B9
:100F300046815781281739074A075B0718F41123A0
:100F400041F00AC082179307A407B50740F41123A4
:100F500019F061E070E005C06FEF7FEF02C060E064
:100F600070E0CB011F91089597FB092E07260AD048
:100F700077FD04D00CD006D000201AF4709561954E
:100F80007F4F0895F6F7909581959F4F0895AA1B7E
:100F9000BB1B51E107C0AA1FBB1FA617B70710F064
:100FA000A61BB70B881F991F5A95A9F78095909596
:100FB000BC01CD0108952F923F924F925F926F92A4
:100FC0007F928F929F92AF92BF92CF92DF92EF92D9
:100FD000FF920F931F93CF93DF93CDB7DEB7CA1B5A
:100FE000DB0B0FB6F894DEBF0FBECDBF09942A8885
:100FF000398848885F846E847D848C849B84AA842D
:10100000B984C884DF80EE80FD800C811B81AA81B9
:10101000B981CE0FD11D0FB6F894DEBF0FBECDBF84
:10102000ED010895A0E0B0E0E8E1F8E00C94E307FA
:10103000EC01A880B980CA80DB80A114B104C1048E
:10104000D10441F484E2A82E89EDB82E8BE5C82E98
:1010500087E0D82EC601B5012DE133EF41E050E025
:101060000E94590B27EA31E440E050E00E943A0B1D
:101070007B018C01C601B5012DE133EF41E050E069
:101080000E94590BCA01B9012CEE34EF4FEF5FEF0C
:101090000E943A0B6E0D7F1D801F911F97FF04C0A9
:1010A0006150704080409048688379838A839B8335
:1010B0009B013F77C901CDB7DEB7EAE00C94FF078B
:1010C0000E941208089581EA92E00E941208089591
:1010D000A0E0B0E08093A1029093A202A093A302AB
:1010E000B093A4020895A0E0B0E0E9E7F8E00C9422
:1010F000EB07FE013596619171918091AA02909162
:10110000AB02AF010E94BD082096E2E00C940708F4
:101110000F931F93CF93DF938C01E091AA02F0917C
:10112000AB02838181FF21C0C0E0D0E00DC0E0911F
:10113000AA02F091AB0220853185BF01F901099522
:10114000892B11F0CFEFDFEFF80181918F01882318
:1011500071F7E091AA02F091AB02208531858AE017
:10116000BF01F9010995892B11F0CFEFDFEFCE0117
:10117000DF91CF911F910F910895ABE0B0E0E3ECC8
:10118000F8E00C94DB073C012B015A01FC011782AB
:101190001682838181FD03C06FEF7FEFC6C19AE0A5
:1011A000892E1E010894211C311CF3012381F201B8
:1011B00023FD859123FF81912F01882309F4B2C17A
:1011C000853239F423FD859123FF81912F018532EA
:1011D00029F490E0B3010E94B00AE7CF982FFF24D2
:1011E000EE249924FFE1FF15D0F09B3269F09C3288
:1011F00028F4903259F0933291F40EC09D3249F0A8
:10120000903369F441E024C052E0F52A84E0F82AE2
:1012100028C098E0F92A25C0E0E1FE2A22C0F7FCA8
:1012200029C0892F80538A3070F4F6FE05C0989C3F
:10123000902C1124980E15C0E89CE02C1124E80E87
:10124000F0E2FF2A0EC09E3229F4F6FC6BC140E4A6
:10125000F42A07C09C3619F450E8F52A02C09836E3
:1012600049F4F20123FD959123FF91912F019923D8
:1012700009F0B8CF892F8554833018F0805283301D
:1012800038F444E050E0A40EB51E5FE359830FC06C
:10129000933631F0933779F0933509F056C020C07A
:1012A000F5018081898342E050E0A40EB51E610102
:1012B00001E010E012C0F501C080D180F6FC03C04F
:1012C0006FEF7FEF02C0692D70E042E050E0A40EA6
:1012D000B51EC6010E94A50A8C015FE7F52214C065
:1012E000F501C080D180F6FC03C06FEF7FEF02C034
:1012F000692D70E042E050E0A40EB51EC6010E94C8
:101300009A0A8C0150E8F52AF3FE07C01AC080E261
:1013100090E0B3010E94B00AEA948E2D90E0081785
:101320001907A8F30EC0F601F7FC8591F7FE81912D
:101330006F0190E0B3010E94B00AE110EA940150FD
:1013400010400115110579F7EAC0943611F099366D
:1013500069F5F7FE08C0F501208131814281538192
:1013600084E090E00AC0F501808191819C014427CE
:1013700037FD4095542F82E090E0A80EB91E9FE6FD
:10138000F92257FF09C050954095309521953F4F60
:101390004F4F5F4FE0E8FE2ACA01B901A1012AE0E0
:1013A00030E00E94DC0AD82ED21840C0953729F4CC
:1013B0001F2D1F7E2AE030E01DC01F2D197F9F3694
:1013C00061F0903720F4983509F0ACC00FC0903729
:1013D00039F0983709F0A6C004C028E030E00AC010
:1013E000106114FD146020E130E004C014FD1660AB
:1013F00020E132E017FF08C0F50160817181828130
:10140000938144E050E008C0F50180819181BC01E6
:1014100080E090E042E050E0A40EB51EA1010E94E1
:10142000DC0AD82ED2188FE7F82EF122F6FE0BC078
:101430005EEFF522D91438F4F4FE07C0F2FC05C0C3
:101440008FEEF82202C01D2D01C0192DF4FE0DC033
:10145000FE01ED0DF11D8081803319F499EEF92222
:1014600008C01F5FF2FE05C003C08F2D867809F00B
:101470001F5F0F2DF3FC14C0F0FE0FC01E1510F0FF
:101480009D2C0BC09D2C9E0C911A1E2D06C080E237
:1014900090E0B3010E94B00A1F5F1E15C0F304C0A4
:1014A0001E1510F4E11A01C0EE2404FF0FC080E302
:1014B00090E0B3010E94B00A02FF1DC001FD03C00D
:1014C00088E790E00EC088E590E00BC0802F86781A
:1014D00091F001FF02C08BE201C080E2F7FC8DE2D7
:1014E00090E0B3010E94B00A06C080E390E0B3012F
:1014F0000E94B00A9A94D914C0F3DA94F101ED0D68
:10150000F11D808190E0B3010E94B00ADD20A9F7AF
:1015100006C080E290E0B3010E94B00AEA94EE2097
:10152000C1F743CEF30166817781CB012B96E2E1CF
:101530000C94F707FC010590615070400110D8F73A
:10154000809590958E0F9F1F0895FC01615070400B
:1015500001900110D8F7809590958E0F9F1F0895E8
:101560000F931F93CF93DF938C01EB018B8181FF4E
:101570001BC082FF0DC02E813F818C819D81281769
:10158000390764F4E881F9810193F983E88306C09F
:10159000E885F985802F0995892B31F48E819F810B
:1015A00001969F838E8302C00FEF1FEFC801DF916A
:1015B000CF911F910F910895FA01AA27283051F178
:1015C000203181F1E8946F936E7F6E5F7F4F8F4F74
:1015D0009F4FAF4FB1E03ED0B4E03CD0670F781FD3
:1015E000891F9A1FA11D680F791F8A1F911DA11DB8
:1015F0006A0F711D811D911DA11D20D009F46894F1
:101600003F912AE0269F11243019305D3193DEF698
:10161000CF010895462F4770405D4193B3E00FD04E
:10162000C9F7F6CF462F4F70405D4A3318F0495D39
:1016300031FD4052419302D0A9F7EACFB4E0A6951C
:101640009795879577956795BA95C9F7009761053E
:10165000710508959B01AC010A2E06945795479594
:1016600037952795BA95C9F7620F731F841F951F89
:10167000A01D0895629FD001739FF001829FE00D2D
:10168000F11D649FE00DF11D929FF00D839FF00D01
:10169000749FF00D659FF00D9927729FB00DE11DAD
:1016A000F91F639FB00DE11DF91FBD01CF0111248A
:1016B000089597FB092E05260ED057FD04D014D0AF
:1016C0000AD0001C38F450954095309521953F4F35
:1016D0004F4F5F4F0895F6F79095809570956195FF
:1016E0007F4F8F4F9F4F0895A1E21A2EAA1BBB1B5D
:1016F000FD010DC0AA1FBB1FEE1FFF1FA217B307DE
:10170000E407F50720F0A21BB30BE40BF50B661FF3
:10171000771F881F991F1A9469F7609570958095B7
:1017200090959B01AC01BD01CF010895F894FFCFC6
:1017300053797374656D20426F6F7465642C2062F9
:1017400075696C74202573206F6E2025730D0A0057
:1017500032313A31343A3330004465632020362048
:10176000323032300048656C6C6F20576F726C6499
:1017700061202D3E2050574D203D202564200D0A2C
:101780000048656C6C6F20576F726C64202D3E2092
:1017900050574D203D202564200D0A00464C0D0079
:1017A00052450D004F4E0D004F46460D0000000003
:1017B00002000000003901000000000000000100EC
:1017C00000000000004301000000000000000000D5
:1017D00000000102020303030304040404040404DC
:1017E00004050505050505050505050505050505AA
:1017F000050606060606060606060606060606068A
:101800000606060606060606060606060606060678
:101810000607070707070707070707070707070759
:101820000707070707070707070707070707070748
:101830000707070707070707070707070707070738
:101840000707070707070707070707070707070728
:101850000708080808080808080808080808080809
:1018600008080808080808080808080808080808F8
:1018700008080808080808080808080808080808E8
:1018800008080808080808080808080808080808D8
:1018900008080808080808080808080808080808C8
:1018A00008080808080808080808080808080808B8
:1018B00008080808080808080808080808080808A8
:1018C0000808080808080808080808080808080898
:0618D00008010000000009
:00000001FF
