:100000000C9434000C9449000C9449000C94490061
:100010000C9449000C9449000C9449000C9449003C
:100020000C9449000C9449000C9449000C9449002C
:100030000C9449000C9449000C9449000C9449001C
:100040000C9449000C9449000C9449000C9449000C
:100050000C9449000C9449000C9449000C944900FC
:100060000C9449000C94490011241FBECFEFD8E036
:10007000DEBFCDBF11E0A0E0B1E0E4E2F2E002C0FB
:1000800005900D92AE30B107D9F70E944B000C9449
:1000900010010C9400000E94F2000E94CD0088E83C
:1000A00093E10197F1F780E091E00E94A00080ECDD
:1000B0000E94AC0086E091E00E94A000FFCF982F44
:1000C000672B79F0907F8BB183738BB9892F94FD67
:1000D0005B9A85FD5A9A86FD5E9A97FF0FC05F9ADC
:1000E00008958BB183738BB99F70892F90FD5B9AB4
:1000F00081FD5A9A82FD5E9A83FD5F9A08950F935F
:100100001F93082F61E070E00E945F002C9A2B9AE9
:1001100011E0812F8A95F1F72B9886E08A95F1F707
:10012000802F60E070E00E945F002B9A1A95F1F733
:100130002B9884EF91E00197F1F71F910F910895AB
:10014000CF93DF93EC0102C00E947F008991882346
:10015000D9F7DF91CF9108950F931F93082F61E096
:1001600070E00E945F002C982B9A11E0812F8A95F5
:10017000F1F72B9886E08A95F1F7802F60E070E028
:100180000E945F002B9A1A95F1F72B9884EF91E06B
:100190000197F1F71F910F91089581E00E94AC0043
:1001A00084EF91E00197F1F780E80E94AC00089598
:1001B000CF93DF93EA01882331F460316CF46F70E0
:1001C000862F806807C0813039F460312CF46F705D
:1001D000862F806C0E94AC00CE010E94A000DF91AF
:1001E000CF9108958AB18C6C8AB984B1886184B941
:1001F00088E893E10197F1F782E00E94AC0088E281
:100200000E94AC008CE00E94AC0086E00E94AC0032
:1002100081E00E94AC0084EF91E00197F1F708952E
:04022000F894FFCF80
:0E022400574F524B3F004F534B4152200000AA
:00000001FF
