:100000000C9434000C9449000C9449000C94490061
:100010000C9449000C9449000C9449000C9449003C
:100020000C9449000C9449000C9449000C9449002C
:100030000C9449000C9449000C9449000C9449001C
:100040000C9449000C9449000C9449000C9449000C
:100050000C9449000C9449000C9449000C944900FC
:100060000C9449000C94490011241FBECFEFD8E036
:10007000DEBFCDBF11E0A0E0B1E0EEEEF5E002C0E2
:1000800005900D92A039B107D9F70E94A4000C94F5
:10009000F5020C9400000F931F93CF93DF938C0114
:1000A00080E20E94050280E00E947B0281E20E94C1
:1000B0002A02C0E0D0E0C336D10519F00E949102B7
:1000C00002C00E949B02F801EC0FFD1F8083219665
:1000D000C436D10581F7DF91CF911F910F9108951B
:1000E000CF92DF92EF92FF920F931F93CF93DF9304
:1000F0007C018B0180E20E94570280E29EE401971E
:10010000F1F7C0E0D0E080E2C82E8EE4D82E0AC01D
:10011000F701EC0FFD1F80810E947B02C601019751
:10012000F1F72196C017D1079CF30E944F0280E29D
:100130009EE40197F1F7DF91CF911F910F91FF900E
:10014000EF90DF90CF9008955F926F927F928F92A1
:100150009F92AF92BF92CF92DF92EF92FF920F9356
:100160001F93DF93CF93CDB7DEB7CB5CD0400FB6F4
:10017000F894DEBF0FBECDBF0E94D7010E94FF01E1
:1001800080E060E040E051E00E94BD015AE0E52ED1
:10019000F12C8E0108591F4F4EE5542E36E0C32E28
:1001A000D12CC00ED11E3E010894611C711C20E9A7
:1001B000822E21E0922E94E0A92EB12CAC0EBD1E11
:1001C000D801ECE2F1E086E001900D928150E1F778
:1001D000F601852D11928A95E9F7C701B3014AE02E
:1001E00050E00E94B0020894E11CF11CC801B30168
:1001F0000E94A50281E060E04EE051E00E94BD0156
:1002000081E060E046E251E00E94BD01F80101900A
:100210000020E9F73197E01BF10BC801BF010E94F4
:10022000700081E062E0A8010E94BD0180E593ECCE
:10023000F4013197F1F70197D9F781E060E04EE0E2
:1002400051E00E94BD0181E060E049E251E00E947E
:10025000BD01C5010E944B0081E062E0A5010E9442
:10026000BD0180E593ECF4013197F1F70197D9F7DF
:100270000E944F02A5CF982F672B79F0907F8BB10A
:1002800083738BB9892F94FD5B9A85FD5A9A86FDFD
:100290005E9A97FF0FC05F9A08958BB183738BB9F5
:1002A0009F70892F90FD5B9A81FD5A9A82FD5E9A1C
:1002B00083FD5F9A08950F931F93082F61E070E00C
:1002C0000E943B012C9A2B9A15E0812F8A95F1F719
:1002D0002B988AE68A95F1F7802F60E070E00E9403
:1002E0003B012B9A1A95F1F72B9880E49FE1019737
:1002F000F1F71F910F910895CF93DF93EC0102C0A6
:100300000E945B0189918823D9F7DF91CF910895ED
:100310000F931F93082F61E070E00E943B012C981F
:100320002B9A15E0812F8A95F1F72B988AE68A950A
:10033000F1F7802F60E070E00E943B012B9A1A9544
:10034000F1F72B9880E49FE10197F1F71F910F914E
:10035000089581E00E94880180E49FE10197F1F710
:1003600080E80E94880188EC90E020E931E0F90102
:100370003197F1F70197D9F70895CF93DF93EA0109
:10038000882331F460316CF46F70862F806807C069
:10039000813039F460312CF46F70862F806C0E94AC
:1003A0008801CE010E947C01DF91CF9108958AB12E
:1003B0008C6C8AB984B1886184B988EC90E020E9BA
:1003C00031E0F9013197F1F70197D9F782E00E9406
:1003D000880188E20E9488018CE00E94880186E002
:1003E0000E94880181E00E94880188EC90E020E969
:1003F00031E0F9013197F1F70197D9F7089510929B
:10040000B90088E48093B8000895982F84EA809317
:10041000BC008091BC0087FFFCCF8091B900887F31
:10042000883011F080E008959093BB0084E88093B9
:10043000BC008091BC0087FFFCCF8091B900887F11
:10044000883111F481E00895803211F083E008953D
:1004500082E00895982F84EA8093BC008091BC00CC
:1004600087FFFCCF8091B900887F803111F080E058
:1004700008959093BB0084E88093BC008091BC00F9
:1004800087FFFCCF8091B900887F803411F481E030
:100490000895803211F083E0089582E0089584E9A0
:1004A0008093BC008091BC0084FDFCCF0895982F00
:1004B00044EA34E824E94093BC008091BC0087FF03
:1004C000FCCF8091B900887F8830A9F79093BB005A
:1004D0003093BC008091BC0087FFFCCF8091B900B5
:1004E000887F883139F02093BC008091BC0084FD66
:1004F000FCCFE1CF08958093BB0084E88093BC00DB
:100500008091BC0087FFFCCF8091B900887F883242
:1005100011F480E00895803311F082E0089581E0C5
:10052000089584EC8093BC008091BC0087FFFCCFD1
:100530008091BB00089584E88093BC008091BC004A
:1005400087FFFCCF8091BB000895FB01DC010D907B
:100550000020E9F7119701900D920020E1F708952E
:10056000FB019F01E8944230C4F04532B4F44A30B4
:1005700029F497FB1EF4909581959F4F642F772760
:100580000E94E102805D8A330CF0895D8193CB018A
:100590000097A1F716F45DE251931082C9010C9403
:1005A000D102DC01FC01672F71917723E1F73297CB
:1005B00004C07C916D9370836291AE17BF07C8F33E
:1005C0000895AA1BBB1B51E107C0AA1FBB1FA6179A
:1005D000B70710F0A61BB70B881F991F5A95A9F7EC
:0E05E00080959095BC01CD010895F894FFCF51
:1005EE004D617374657220446576696365002020E1
:1005FE0020202020202020202020202020202020ED
:10060E00202020202000533A00523A0048454C4CFE
:10061E004F0000000000000000000000000000007D
:10062E0000000000000000000000000000000000BC
:10063E0000000000000000000000000000000000AC
:10064E00000000000000000000000000000000009C
:10065E00000000000000000000000000000000008C
:10066E00000000000000000000000000000000007C
:00000001FF
