:100000000C9434000C9451000C9451000C94510049
:100010000C9451000C9451000C9451000C9451001C
:100020000C9451000C9451000C9451000C9451000C
:100030000C9451000C9451000C9451000C945100FC
:100040000C9451000C9451000C9451000C945100EC
:100050000C9451000C9451000C9451000C945100DC
:100060000C9451000C94510011241FBECFEFD8E026
:10007000DEBFCDBF11E0A0E0B1E0E2E0FBE002C0F6
:1000800005900D92A83EB107D9F711E0A8EEB1E0B6
:1000900001C01D92AE3EB107E1F70E948E000C94A4
:1000A0007F050C9400000F931F93CF93DF93EC0117
:1000B0008B010E94BE01882319F0813051F513C0D5
:1000C00081E060E040E051E00E947C0181E060E07E
:1000D00048E151E00E947C01CE010E94200281E0B3
:1000E00062E0AE0114C081E060E040E051E00E94B7
:1000F0007C0181E060E04BE151E00E947C01C8019D
:100100006AE070E00E942C0281E062E0A8010E9497
:100110007C01DF91CF911F910F9108958F929F9253
:10012000AF92BF92CF92DF92EF92FF920F931F9305
:10013000DF93CF93CDB7DEB7C85CD0400FB6F8944D
:10014000DEBF0FBECDBFDE011196E0E6F1E086E036
:1001500001900D928150E1F7FE0137968EE5DF01A7
:100160001D928A95E9F78E010B591F4F84E6F8011D
:1001700011928A95E9F780E3D8018C930E946B0273
:100180000E94960180E20E944E0280E060E04EE113
:1001900051E00E947C012BE2822E21E0922E9BE412
:1001A000A92E91E0B92E84E5C82E81E0D82E7801E1
:1001B0008E010F5F1F4F00D000D000D0EDB7FEB70B
:1001C0003196ADB7BEB712969C928E921197B382BC
:1001D000A282D582C4820E948102EDB7FEB7369614
:1001E0000FB6F894FEBF0FBEEDBFC701B8010E9465
:1001F0005300E1CF982F672B79F0907F8BB18373F9
:100200008BB9892F94FD5B9A85FD5A9A86FD5E9A7B
:1002100097FF0FC05F9A08958BB183738BB99F705E
:10022000892F90FD5B9A81FD5A9A82FD5E9A83FD2B
:100230005F9A08950F931F93082F61E070E00E946A
:10024000FA002C9A2B9A15E0812F8A95F1F72B98BA
:100250008AE68A95F1F7802F60E070E00E94FA004C
:100260002B9A1A95F1F72B9880E49FE10197F1F70B
:100270001F910F910895CF93DF93EC0102C00E946C
:100280001A0189918823D9F7DF91CF9108950F93AF
:100290001F93082F61E070E00E94FA002C982B9ABF
:1002A00015E0812F8A95F1F72B988AE68A95F1F768
:1002B000802F60E070E00E94FA002B9A1A95F1F707
:1002C0002B9880E49FE10197F1F71F910F9108951A
:1002D00081E00E94470180E49FE10197F1F780E807
:1002E0000E94470188EC90E020E931E0F901319764
:1002F000F1F70197D9F70895CF93DF93EA018823A7
:1003000031F460316CF46F70862F806807C08130E3
:1003100039F460312CF46F70862F806C0E94470195
:10032000CE010E943B01DF91CF9108958AB18C6C80
:100330008AB984B1886184B988EC90E020E931E021
:10034000F9013197F1F70197D9F782E00E9447014F
:1003500088E20E9447018CE00E94470186E00E94EB
:10036000470181E00E94470188EC90E020E931E0FC
:10037000F9013197F1F70197D9F708958091BC0001
:1003800087FFFCCF8091B900887F803659F088368E
:1003900049F0883A49F0803B39F0803739F08837A6
:1003A00069F704C080E0089581E0089582E008952F
:1003B0008093BB0084EC8093BC008091BC0087FFDD
:1003C000FCCF8091B900887F803A39F48091BC00DD
:1003D00080688093BC008FEF0895883B11F480E023
:1003E0000895803C39F48091BC0080688093BC0003
:1003F0008EEF0895883C11F08CEF08958DEF0895ED
:1004000084EC8093BC008091BC0087FFFCCF80917E
:10041000B900887F803831F0803921F0883811F0B8
:10042000883919F48091BB000895803A11F08EEF5D
:1004300008958091BC0080688093BC008FEF089580
:10044000CF93DF93EC010E9400028F3F11F089935C
:10045000FACFDF91CF910895EF92FF920F931F9300
:10046000CF93DF937C018B01C0E0D0E0F701EC0F6C
:10047000FD1F80810E94D8012196C017D10729F461
:1004800084EC91E00E94960202C0882379F3DF9108
:10049000CF911F910F91FF90EF9008951F93182F08
:1004A0000E946B021093BA0084EC8093BC001F91F1
:1004B0000895982F8091C00085FFFCCF9093C600CF
:1004C00080E090E008958091C00087FFFCCF80918C
:1004D000C60090E0089588E18093C10087E690E02F
:1004E0009093C5008093C4008BEC91E09093EB0156
:1004F0008093EA0189ED91E09093E9018093E8010E
:100500000895A0E0B0E0E7E8F2E00C945805FE01A1
:100510003596619171918091EA019091EB01AF0163
:100520000E94CB022096E2E00C9474050F931F9377
:10053000CF93DF938C01E091EA01F091EB0183818D
:1005400081FF21C0C0E0D0E00DC0E091EA01F09150
:10055000EB0120853185BF01F9010995892B11F047
:10056000CFEFDFEFF80181918F01882371F7E091E0
:10057000EA01F091EB01208531858AE0BF01F901A4
:100580000995892B11F0CFEFDFEFCE01DF91CF91ED
:100590001F910F910895ABE0B0E0E1EDF2E00C9413
:1005A00048053C012B015A01FC0117821682838108
:1005B00081FD03C06FEF7FEFC6C19AE0892E1E0157
:1005C0000894211C311CF3012381F20123FD859144
:1005D00023FF81912F01882309F4B2C1853239F4B8
:1005E00023FD859123FF81912F01853229F490E02D
:1005F000B3010E94BE04E7CF982FFF24EE24992474
:10060000FFE1FF15D0F09B3269F09C3228F4903264
:1006100059F0933291F40EC09D3249F0903369F451
:1006200041E024C052E0F52A84E0F82A28C098E08E
:10063000F92A25C0E0E1FE2A22C0F7FC29C0892F53
:1006400080538A3070F4F6FE05C0989C902C1124DB
:10065000980E15C0E89CE02C1124E80EF0E2FF2A69
:100660000EC09E3229F4F6FC6BC140E4F42A07C0A8
:100670009C3619F450E8F52A02C0983649F4F20184
:1006800023FD959123FF91912F01992309F0B8CF74
:10069000892F8554833018F08052833038F444E039
:1006A00050E0A40EB51E5FE359830FC0933631F0BE
:1006B000933779F0933509F056C020C0F501808159
:1006C000898342E050E0A40EB51E610101E010E014
:1006D00012C0F501C080D180F6FC03C06FEF7FEF40
:1006E00002C0692D70E042E050E0A40EB51EC601C4
:1006F0000E94B3048C015FE7F52214C0F501C080AD
:10070000D180F6FC03C06FEF7FEF02C0692D70E06F
:1007100042E050E0A40EB51EC6010E94A8048C0160
:1007200050E8F52AF3FE07C01AC080E290E0B3015A
:100730000E94BE04EA948E2D90E008171907A8F3D2
:100740000EC0F601F7FC8591F7FE81916F0190E0F4
:10075000B3010E94BE04E110EA940150104001155B
:10076000110579F7EAC0943611F0993669F5F7FE6C
:1007700008C0F501208131814281538184E090E0FD
:100780000AC0F501808191819C01442737FD409585
:10079000542F82E090E0A80EB91E9FE6F92257FF81
:1007A00009C050954095309521953F4F4F4F5F4F71
:1007B000E0E8FE2ACA01B901A1012AE030E00E9466
:1007C000EA04D82ED21840C0953729F41F2D1F7E79
:1007D0002AE030E01DC01F2D197F9F3661F0903751
:1007E00020F4983509F0ACC00FC0903739F0983735
:1007F00009F0A6C004C028E030E00AC0106114FD72
:10080000146020E130E004C014FD166020E132E005
:1008100017FF08C0F501608171818281938144E0F6
:1008200050E008C0F50180819181BC0180E090E03A
:1008300042E050E0A40EB51EA1010E94EA04D82EA9
:10084000D2188FE7F82EF122F6FE0BC05EEFF522EC
:10085000D91438F4F4FE07C0F2FC05C08FEEF8227C
:1008600002C01D2D01C0192DF4FE0DC0FE01ED0DBD
:10087000F11D8081803319F499EEF92208C01F5FC1
:10088000F2FE05C003C08F2D867809F01F5F0F2D83
:10089000F3FC14C0F0FE0FC01E1510F09D2C0BC011
:1008A0009D2C9E0C911A1E2D06C080E290E0B30193
:1008B0000E94BE041F5F1E15C0F304C01E1510F475
:1008C000E11A01C0EE2404FF0FC080E390E0B30101
:1008D0000E94BE0402FF1DC001FD03C088E790E036
:1008E0000EC088E590E00BC0802F867891F001FF64
:1008F00002C08BE201C080E2F7FC8DE290E0B30120
:100900000E94BE0406C080E390E0B3010E94BE04D2
:100910009A94D914C0F3DA94F101ED0DF11D8081A0
:1009200090E0B3010E94BE04DD20A9F706C080E27A
:1009300090E0B3010E94BE04EA94EE20C1F743CEDA
:10094000F30166817781CB012B96E2E10C9464057B
:10095000FC010590615070400110D8F7809590958A
:100960008E0F9F1F0895FC0161507040019001108F
:10097000D8F7809590958E0F9F1F08950F931F9322
:10098000CF93DF938C01EB018B8181FF1BC082FF32
:100990000DC02E813F818C819D812817390764F419
:1009A000E881F9810193F983E88306C0E885F98538
:1009B000802F0995892B31F48E819F8101969F8329
:1009C0008E8302C00FEF1FEFC801DF91CF911F91FF
:1009D0000F910895FA01AA27283051F1203181F1B1
:1009E000E8946F936E7F6E5F7F4F8F4F9F4FAF4F37
:1009F000B1E03ED0B4E03CD0670F781F891F9A1F4A
:100A0000A11D680F791F8A1F911DA11D6A0F711DFD
:100A1000811D911DA11D20D009F468943F912AE009
:100A2000269F11243019305D3193DEF6CF010895F1
:100A3000462F4770405D4193B3E00FD0C9F7F6CF22
:100A4000462F4F70405D4A3318F0495D31FD4052EA
:100A5000419302D0A9F7EACFB4E0A6959795879580
:100A600077956795BA95C9F700976105710508955F
:100A70009B01AC010A2E069457954795379527950B
:100A8000BA95C9F7620F731F841F951FA01D0895A3
:100A90002F923F924F925F926F927F928F929F928E
:100AA000AF92BF92CF92DF92EF92FF920F931F937C
:100AB000CF93DF93CDB7DEB7CA1BDB0B0FB6F8942D
:100AC000DEBF0FBECDBF09942A88398848885F846D
:100AD0006E847D848C849B84AA84B984C884DF80DE
:100AE000EE80FD800C811B81AA81B981CE0FD11DC2
:100AF0000FB6F894DEBF0FBECDBFED010895F89498
:020B0000FFCF25
:100B020020202020202020202020202020202020E3
:100B12002020202020202000523A00533A00536C1B
:100B220061766520446576696365005379737465FF
:100B32006D20426F6F7465642C206275696C74203D
:100B42002573206F6E2025730D0A0032333A31313E
:100B52003A3337004465632031342032303230007A
:100B6200534C415645000000000000000000000008
:100B72000000000000000000000000000000000073
:100B82000000000000000000000000000000000063
:100B92000000000000000000000000000000000053
:100BA2000000000000000000000000000000000043
:100BB2000000000000000000000000000000000033
:100BC20000000000627265616B0D0000000002000F
:100BD20000000059020000000000000001000000B7
:080BE2000000006302000000A6
:00000001FF
