:100000000C9434000C9449000C9449000C94490061
:100010000C9449000C9449000C9449000C9449003C
:100020000C9449000C9449000C9449000C9449002C
:100030000C9449000C9449000C9449000C9449001C
:100040000C9449000C9449000C9449000C9449000C
:100050000C9449000C9449000C9449000C944900FC
:100060000C9449000C94490011241FBECFEFD8E036
:10007000DEBFCDBF11E0A0E0B1E0E2E3F3E002C0FB
:1000800005900D92AC31B107D9F70E944B000C944A
:1000900097010C940000CF92DF92EF92FF920F93A2
:1000A0001F93DF93CF9300D000D0CDB7DEB70E946F
:1000B00030010E94070180E091E00E94DA0080ECAC
:1000C0000E94E60087E091E00E94DA0088E893E170
:1000D00020E931E0F9013197F1F70197D9F700E014
:1000E00010E080E9C82E81E0D82E7E010894E11C42
:1000F000F11C88E893E1F6013197F1F70197D9F700
:100100000E9407018FE091E00E94DA0080EC0E94DB
:10011000E600C801B7014AE050E00E945201C70161
:100120000E94DA0088E191E00E94DA000F5F1F4F21
:10013000E0CF982F672B79F0907F8BB183738BB9C9
:10014000892F94FD5B9A85FD5A9A86FD5E9A97FFEA
:100150000FC05F9A08958BB183738BB99F70892FFD
:1001600090FD5B9A81FD5A9A82FD5E9A83FD5F9AAB
:1001700008950F931F93082F61E070E00E9499008B
:100180002C9A2B9A11E0812F8A95F1F72B9886E013
:100190008A95F1F7802F60E070E00E9499002B9A19
:1001A0001A95F1F72B9884EF91E00197F1F71F91E1
:1001B0000F910895CF93DF93EC0102C00E94B90024
:1001C00089918823D9F7DF91CF9108950F931F93D9
:1001D000082F61E070E00E9499002C982B9A11E0A2
:1001E000812F8A95F1F72B9886E08A95F1F7802F79
:1001F00060E070E00E9499002B9A1A95F1F72B9815
:1002000084EF91E00197F1F71F910F91089581E03C
:100210000E94E60084EF91E00197F1F780E80E94E8
:10022000E60088E893E10197F1F70895CF93DF9313
:10023000EA01882331F460316CF46F70862F806896
:1002400007C0813039F460312CF46F70862F806CD8
:100250000E94E600CE010E94DA00DF91CF9108955E
:100260000F931F938AB18C6C8AB984B1886184B969
:1002700008E813E1C8010197F1F782E00E94E60067
:1002800088E20E94E6008CE00E94E60086E00E9480
:10029000E60081E00E94E600C8010197F1F71F9196
:1002A0000F910895FB019F01E8944230C4F045325C
:1002B000B4F44A3029F497FB1EF4909581959F4F32
:1002C000642F77270E948301805D8A330CF0895D5B
:1002D0008193CB010097A1F716F45DE25193108250
:1002E000C9010C947301DC01FC01672F7191772324
:1002F000E1F7329704C07C916D9370836291AE17E1
:10030000BF07C8F30895AA1BBB1B51E107C0AA1F72
:10031000BB1FA617B70710F0A61BB70B881F991FA6
:100320005A95A9F780959095BC01CD010895F89450
:02033000FFCFFD
:10033200574F524B533F004F525256415220004F9B
:0C034200534B4152204B2000204400008F
:00000001FF
