:100000000C9434000C9449000C9449000C94490061
:100010000C9449000C9449000C9449000C9449003C
:100020000C9449000C9449000C9449000C9449002C
:100030000C9449000C9449000C9449000C9449001C
:100040000C9449000C9449000C9449000C9449000C
:100050000C9449000C9449000C9449000C944900FC
:100060000C944B000C94490011241FBECFEFD8E034
:10007000DEBFCDBF11E0A0E0B1E0E6EDF4E002C0EC
:1000800005900D92A039B107D9F70E94EA000C94AF
:1000900069020C9400001F920F920FB60F92112468
:1000A0002F933F938F939F93EF93FF9385B190E2AC
:1000B000892785B984EC99E020E931E0F90131978D
:1000C000F1F70197D9F785B190E2892785B984ECDA
:1000D00099E020E931E0F9013197F1F70197D9F77B
:1000E00085B190E2892785B984EC99E020E931E077
:1000F000F9013197F1F70197D9F785B190E2892796
:1001000085B984EC99E020E931E0F9013197F1F704
:100110000197D9F781E08093BC00FF91EF919F9107
:100120008F913F912F910F900FBE0F901F901895B8
:10013000CF93DF93EC0189910E9421028823D9F3A8
:10014000DF91CF910895CF93DF93EC010E94490294
:100150008F3F11F08993FACFDF91CF9108950F93DC
:100160001F93CF93DF93EC018B01F8940E94070259
:10017000882319F0813041F513C081E060E040E050
:1001800051E00E94BF0181E060E048E151E00E943F
:10019000BF01CE010E94A30081E062E0AE0112C067
:1001A00081E060E040E051E00E94BF0181E060E05A
:1001B0004BE151E00E94BF01C8010E94980081E01C
:1001C00062E0A8010E94BF017894DF91CF911F9156
:1001D0000F910895EF92FF920F931F93DF93CF93A8
:1001E000CDB7DEB7C85CD0400FB6F894DEBF0FBE07
:1001F000CDBFDE011196EBE2F1E086E001900D92B9
:100200008150E1F7FE0137968EE5DF011D928A9558
:10021000E9F7FE01EB59FF4F84E6DF011D928A9555
:10022000E9F780E38083259A2D9A2D9A0E94D901BF
:1002300080E20E94010280E060E04EE151E00E9415
:10024000BF018091BC0081608093BC00789480EDF8
:1002500097E020E931E0F9013197F1F70197D9F7FB
:1002600085E6E82EF12CEC0EFD1E8E010F5F1F4F70
:10027000C701B8010E94AF00FBCF982F672B79F020
:10028000907F8BB183738BB9892F94FD5B9A85FD29
:100290005A9A86FD5E9A97FF0FC05F9A08958BB1B8
:1002A00083738BB99F70892F90FD5B9A81FD5A9A59
:1002B00082FD5E9A83FD5F9A08950F931F93082F26
:1002C00061E070E00E943D012C9A2B9A15E0812F8D
:1002D0008A95F1F72B988AE68A95F1F7802F60E0EE
:1002E00070E00E943D012B9A1A95F1F72B9880E45B
:1002F0009FE10197F1F71F910F910895CF93DF933D
:10030000EC0102C00E945D0189918823D9F7DF9139
:10031000CF9108950F931F93082F61E070E00E9422
:100320003D012C982B9A15E0812F8A95F1F72B9897
:100330008AE68A95F1F7802F60E070E00E943D0127
:100340002B9A1A95F1F72B9880E49FE10197F1F72A
:100350001F910F91089581E00E948A0180E49FE13E
:100360000197F1F780E80E948A0188EC90E020E98B
:1003700031E0F9013197F1F70197D9F70895CF935B
:10038000DF93EA01882331F460316CF46F70862FBB
:10039000806807C0813039F460312CF46F70862F8B
:1003A000806C0E948A01CE010E947E01DF91CF9174
:1003B00008958AB18C6C8AB984B1886184B988EC5B
:1003C00090E020E931E0F9013197F1F70197D9F791
:1003D00082E00E948A0188E20E948A018CE00E94E9
:1003E0008A0186E00E948A0181E00E948A0188ECED
:1003F00090E020E931E0F9013197F1F70197D9F761
:1004000008958093BA0084EC8093BC000895809195
:10041000BC0087FFFCCF8091B900887F803659F0FF
:10042000883649F0883A49F0803B39F0803739F016
:10043000883769F704C080E0089581E0089582E07C
:1004400008958093BB0084EC8093BC008091BC0035
:1004500087FFFCCF8091B900887F803A39F4809182
:10046000BC0080688093BC008FEF0895883B11F436
:1004700080E00895803C39F48091BC0080688093CE
:10048000BC008EEF0895883C11F08CEF08958DEF3D
:10049000089584EC8093BC008091BC0087FFFCCF62
:1004A0008091B900887F803831F0803921F0883818
:1004B00011F0883919F48091BB000895803A11F049
:1004C0008EEF08958091BC0080688093BC008FEF10
:0604D0000895F894FFCF2F
:1004D6002020202020202020202020202020202016
:1004E6002020202020202000523A00533A00536C4E
:1004F6006176652044657669636500574F524C44C2
:1005060000000000000000000000000000000000E5
:1005160000000000000000000000000000000000D5
:1005260000000000000000000000000000000000C5
:1005360000000000000000000000000000000000B5
:1005460000000000000000000000000000000000A5
:100556000000000000000000000000000000000095
:00000001FF
