:100000000C9434000C9449000C9449000C94490061
:100010000C9449000C9449000C9449000C9449003C
:100020000C9449000C9449000C9449000C9449002C
:100030000C9449000C9449000C9449000C9449001C
:100040000C9449000C9449000C9449000C9449000C
:100050000C9449000C9449000C9449000C944900FC
:100060000C9449000C94490011241FBECFEFD8E036
:10007000DEBFCDBF11E0A0E0B1E0E8E7FAE002C0EA
:1000800005900D92AE32B107D9F70E944B000C9447
:100090003A050C9400008F929F92AF92BF92CF923C
:1000A000DF92EF92FF920F931F93DF93CF93CDB721
:1000B000DEB72A970FB6F894DEBF0FBECDBF0E9401
:1000C00094010E94BC0180E060E040E051E00E94A9
:1000D0007A0120E2822E2EE4922E7E010894E11C09
:1000E000F11C9BE1C92E91E0D92E80E9A82E81E078
:1000F000B82E81E060E04EE051E00E947A0180E29B
:100100000E941402C4010197F1F700E010E000D052
:1001100000D000D0EDB7FEB73196ADB7BEB712969E
:10012000FC92EE921197D382C282158304830E94BF
:1001300062028DB79EB706960FB6F8949EBF0FBEAB
:100140008DBF81E066E0A7010E947A01802F0E94A6
:10015000380288E893E1F5013197F1F70197D9F773
:100160000F5F1F4F0A30110591F681E060E042E217
:1001700051E00E947A0181E20E94E701C4010197E7
:10018000F1F710E0193019F00E944E0202C00E94EF
:10019000580200D000D000D0EDB7FEB73196ADB711
:1001A000BEB71296FC92EE921197D382C282992723
:1001B00087FD9095958384830E9462028DB79EB7D8
:1001C00006960FB6F8949EBF0FBE8DBF81E066E025
:1001D000A7010E947A0188E893E1F5013197F1F7D0
:1001E0000197D9F71F5F1A3069F60E940C0281CF80
:1001F000982F672B79F0907F8BB183738BB9892F00
:1002000094FD5B9A85FD5A9A86FD5E9A97FF0FC012
:100210005F9A08958BB183738BB99F70892F90FD7E
:100220005B9A81FD5A9A82FD5E9A83FD5F9A0895DA
:100230000F931F93082F61E070E00E94F8002C9A42
:100240002B9A15E0812F8A95F1F72B988AE68A95EB
:10025000F1F7802F60E070E00E94F8002B9A1A9569
:10026000F1F72B9880E49FE10197F1F71F910F912F
:100270000895CF93DF93EC0102C00E941801899189
:100280008823D9F7DF91CF9108950F931F93082FFB
:1002900061E070E00E94F8002C982B9A15E0812F05
:1002A0008A95F1F72B988AE68A95F1F7802F60E01E
:1002B00070E00E94F8002B9A1A95F1F72B9880E4D1
:1002C0009FE10197F1F71F910F91089581E00E943E
:1002D000450180E49FE10197F1F780E80E94450124
:1002E00088EC90E020E931E0F9013197F1F70197CE
:1002F000D9F70895CF93DF93EA01882331F4603171
:100300006CF46F70862F806807C0813039F46031DB
:100310002CF46F70862F806C0E944501CE010E94E4
:100320003901DF91CF9108958AB18C6C8AB984B17B
:10033000886184B988EC90E020E931E0F9013197D7
:10034000F1F70197D9F782E00E94450188E20E9407
:1003500045018CE00E94450186E00E94450181E054
:100360000E94450188EC90E020E931E0F9013197E5
:10037000F1F70197D9F708951092B90088E48093B6
:10038000B8000895982F84EA8093BC008091BC0047
:1003900087FFFCCF8091B900887F883011F080E022
:1003A00008959093BB0084E88093BC008091BC00CA
:1003B00087FFFCCF8091B900887F883111F481E0FC
:1003C0000895803211F083E0089582E00895982F17
:1003D00084EA8093BC008091BC0087FFFCCF8091B1
:1003E000B900887F803111F080E008959093BB00C0
:1003F00084E88093BC008091BC0087FFFCCF809193
:10040000B900887F803411F481E00895803211F0C2
:1004100083E0089582E0089584E98093BC00809190
:10042000BC0084FDFCCF0895982F44EA34E824E909
:100430004093BC008091BC0087FFFCCF8091B90045
:10044000887F8830A9F79093BB003093BC008091DF
:10045000BC0087FFFCCF8091B900887F883139F0DC
:100460002093BC008091BC0084FDFCCFE1CF0895B7
:100470008093BB0084E88093BC008091BC0087FF20
:10048000FCCF8091B900887F883211F480E0089514
:10049000803311F082E0089581E0089584EC809328
:1004A000BC008091BC0087FFFCCF8091BB00089509
:1004B00084E88093BC008091BC0087FFFCCF8091D2
:1004C000BB000895AEE0B0E0E8E6F2E00C94110560
:1004D0000D891E8986E08C831A8309838FEF9FE73D
:1004E0009E838D839E01275E3F4FCE0101966F89CB
:1004F000788DA9010E9486022F813885020F131F73
:10050000F80110822E96E4E00C942D05ABE0B0E0EB
:10051000ECE8F2E00C9403053C012B015A01FC01CC
:1005200017821682838181FD03C06FEF7FEFC6C102
:100530009AE0892E1E010894211C311CF3012381AD
:10054000F20123FD859123FF81912F01882309F476
:10055000B2C1853239F423FD859123FF81912F01AA
:10056000853229F490E0B3010E947904E7CF982FF7
:10057000FF24EE249924FFE1FF15D0F09B3269F0AF
:100580009C3228F4903259F0933291F40EC09D328F
:1005900049F0903369F441E024C052E0F52A84E048
:1005A000F82A28C098E0F92A25C0E0E1FE2A22C0F6
:1005B000F7FC29C0892F80538A3070F4F6FE05C0FD
:1005C000989C902C1124980E15C0E89CE02C1124C6
:1005D000E80EF0E2FF2A0EC09E3229F4F6FC6BC151
:1005E00040E4F42A07C09C3619F450E8F52A02C00A
:1005F000983649F4F20123FD959123FF91912F0143
:10060000992309F0B8CF892F8554833018F0805290
:10061000833038F444E050E0A40EB51E5FE3598304
:100620000FC0933631F0933779F0933509F056C007
:1006300020C0F5018081898342E050E0A40EB51E00
:10064000610101E010E012C0F501C080D180F6FC2C
:1006500003C06FEF7FEF02C0692D70E042E050E011
:10066000A40EB51EC6010E946E048C015FE7F52240
:1006700014C0F501C080D180F6FC03C06FEF7FEF9E
:1006800002C0692D70E042E050E0A40EB51EC60124
:100690000E9463048C0150E8F52AF3FE07C01AC0DB
:1006A00080E290E0B3010E947904EA948E2D90E0FC
:1006B00008171907A8F30EC0F601F7FC8591F7FE9D
:1006C00081916F0190E0B3010E947904E110EA94F6
:1006D000015010400115110579F7EAC0943611F068
:1006E000993669F5F7FE08C0F50120813181428114
:1006F000538184E090E00AC0F501808191819C01E2
:10070000442737FD4095542F82E090E0A80EB91E93
:100710009FE6F92257FF09C05095409530952195E5
:100720003F4F4F4F5F4FE0E8FE2ACA01B901A101D8
:100730002AE030E00E94A504D82ED21840C0953798
:1007400029F41F2D1F7E2AE030E01DC01F2D197FC8
:100750009F3661F0903720F4983509F0ACC00FC097
:10076000903739F0983709F0A6C004C028E030E08F
:100770000AC0106114FD146020E130E004C014FDD3
:10078000166020E132E017FF08C0F5016081718139
:100790008281938144E050E008C0F501808191811D
:1007A000BC0180E090E042E050E0A40EB51EA10143
:1007B0000E94A504D82ED2188FE7F82EF122F6FE5B
:1007C0000BC05EEFF522D91438F4F4FE07C0F2FC3A
:1007D00005C08FEEF82202C01D2D01C0192DF4FEB8
:1007E0000DC0FE01ED0DF11D8081803319F499EEED
:1007F000F92208C01F5FF2FE05C003C08F2D867866
:1008000009F01F5F0F2DF3FC14C0F0FE0FC01E1582
:1008100010F09D2C0BC09D2C9E0C911A1E2D06C015
:1008200080E290E0B3010E9479041F5F1E15C0F3BF
:1008300004C01E1510F4E11A01C0EE2404FF0FC01D
:1008400080E390E0B3010E94790402FF1DC001FD26
:1008500003C088E790E00EC088E590E00BC0802FD1
:10086000867891F001FF02C08BE201C080E2F7FCC4
:100870008DE290E0B3010E94790406C080E390E02D
:10088000B3010E9479049A94D914C0F3DA94F10167
:10089000ED0DF11D808190E0B3010E947904DD200F
:1008A000A9F706C080E290E0B3010E947904EA94BF
:1008B000EE20C1F743CEF30166817781CB012B9601
:1008C000E2E10C941F05FC0105906150704001109D
:1008D000D8F7809590958E0F9F1F0895FC01615069
:1008E000704001900110D8F7809590958E0F9F1F52
:1008F00008950F931F93CF93DF938C01EB018B81AE
:1009000081FF1BC082FF0DC02E813F818C819D81A4
:100910002817390764F4E881F9810193F983E883A2
:1009200006C0E885F985802F0995892B31F48E81E1
:100930009F8101969F838E8302C00FEF1FEFC80136
:10094000DF91CF911F910F910895FA01AA272830C6
:1009500051F1203181F1E8946F936E7F6E5F7F4F8C
:100960008F4F9F4FAF4FB1E03ED0B4E03CD0670F08
:10097000781F891F9A1FA11D680F791F8A1F911D5B
:10098000A11D6A0F711D811D911DA11D20D009F4AB
:1009900068943F912AE0269F11243019305D3193ED
:1009A000DEF6CF010895462F4770405D4193B3E0D6
:1009B0000FD0C9F7F6CF462F4F70405D4A3318F07D
:1009C000495D31FD4052419302D0A9F7EACFB4E02E
:1009D000A6959795879577956795BA95C9F70097E6
:1009E0006105710508959B01AC010A2E0694579587
:1009F000479537952795BA95C9F7620F731F841FDE
:100A0000951FA01D08952F923F924F925F926F9273
:100A10007F928F929F92AF92BF92CF92DF92EF928E
:100A2000FF920F931F93CF93DF93CDB7DEB7CA1B0F
:100A3000DB0B0FB6F894DEBF0FBECDBF09942A883A
:100A4000398848885F846E847D848C849B84AA84E2
:100A5000B984C884DF80EE80FD800C811B81AA816F
:100A6000B981CE0FD11D0FB6F894DEBF0FBECDBF3A
:080A7000ED010895F894FFCF99
:100A78004D617374657220446576696365005365DA
:100A88006E643A2020202020202000256420202089
:0E0A980020005265633A2020202020202000FC
:00000001FF
